:100000000A128A11FC2F00308A000408840A820731
:100010000034523465347634653472347334653464
:1000200020344D346F3464346534003453347934BF
:100030007334743465346D3420345234653461342F
:1000400064347934003444346F346F3472343A3465
:1000500043344C344F345334453444340034433403
:1000600061347234203453347434613472347434EF
:1000700065346434003444346F346F3472343A3449
:100080004F34503445344E342034003444346934D1
:0A009000733474343A342034003421
:10096400FF30F0070318F10AFF30F107700A031D86
:10097400BF2C710A031DBF2CC02CB22C080083129B
:100984000313A1002118C72CCB2C831203130914C1
:10099400CE2C831203130910200888000A128A112E
:1009A400D6240A128A110800831203138914E8302A
:1009B400F0000330F1000A128A11B2240A128A11DB
:1009C400831203138910E830F0000330F1000A1297
:1009D4008A11B2240A128A11080083120313A30095
:1009E400092D230884000A128A1103200A128A118D
:1009F400A2002208A00001300A128A11C1240A129E
:100A04008A11013083120313A2002208A3072308CA
:100A140084000A128A1103200A128A11003A031D63
:100A2400142D152DF32C08007808790403191B2DB7
:100A34001C2D4B2DFD01FD0A2A2D01300310F80D4C
:100A4400F90DFF3E031D202D0130FC007C08FD073D
:100A5400F91F2D2D2E2D1F2D79087B02031D342DFA
:100A640078087A02031C372D382D3E2D7808FA02B7
:100A74007908031CFB03FB0201300310F90CF80C8A
:100A8400FF3E031D3F2D0130FD02031D4A2D4B2D5A
:100A94002E2D7B08F9007A08F8000800F501F6010C
:100AA400700871040319572D582D8F2DF701F70A7B
:100AB400662D01300310F00DF10DFF3E031D5C2D7A
:100AC4000130F4007408F707F11F692D6A2D5B2DBE
:100AD40001300310F50DF60DFF3E031D6B2D71085B
:100AE4007302031D772D70087202031C7A2D7B2D6F
:100AF400822D7008F2027108031CF303F3027514CB
:100B040001300310F10CF00CFF3E031D832D013066
:100B1400F702031D8E2D8F2D6A2D7608F1007508BE
:100B2400F000080083120313071402308312031326
:100B3400A200A20B9B2D0000831203130710871C35
:100B4400A42DA52DA12D0030A8000030A700003051
:100B5400A6000030A500BF2D00000130831203134E
:100B6400A507003003180130A60700300318013030
:100B7400A707003003180130A8078718C22DC32D1A
:100B8400AE2D0030F3000030F2000030F1003A30B6
:100B9400F0002808F7002708F6002608F5002508C5
:100BA400F4000A128A11E3250A128A1171088312C9
:100BB4000313A4007008A3002408A1002308A000C4
:100BC40008000030FC000030FB000030FA00003068
:100BD400F90073087204710470040319F22DF32DE3
:100BE400402EFD01FD0A032E0130F8000310F00D24
:100BF400F10DF20DF30DF80BF82D0130F800780823
:100C0400FD07F31F062E072EF62D0130F800031002
:100C1400F90DFA0DFB0DFC0DF80B092E7308770284
:100C2400031D1E2E72087602031D1E2E7108750206
:100C3400031D1E2E70087402031C212E222E312E39
:100C44007008F4027108031C710FF5027208031C8A
:100C5400720FF6027308031C730FF7027914013044
:100C64000310F30CF20CF10CF00CFF3E031D322EBA
:100C74000130FD02031D3F2E402E072E7C08F30099
:100C84007B08F2007A08F1007908F000080083126A
:100C9400031389018801860187018501FF308316CA
:100CA40003138500860102308700880189018316B9
:100CB400031789018801383083120313A900290816
:100CC400A00000300A128A11C1240A128A110C30C1
:100CD40083120313A9002908A00000300A128A1104
:100CE400C1240A128A11063083120313A9002908A9
:100CF400A00000300A128A11C1240A128A11831238
:100D04000313A001A00A00300A128A11C1240A1296
:100D14008A11E830F0000330F1000A128A11B2247B
:100D24000A128A110E300A128A11EF240A128A1149
:100D3400063083120313AB001330AA00AD30A900B0
:100D4400A90BA22EAA0BA22EAB0BA22E8312031365
:100D5400A001A00A00300A128A11C1240A128A11C1
:100D640083120313051CB72EB82EE92EA001A00A86
:100D740000300A128A11C1240A128A1180308312A7
:100D84000313A9002908A00000300A128A11C12403
:100D94000A128A1127300A128A11EF240A128A11C0
:100DA400831203130711033083120313AB008A3039
:100DB400AA005530A900A90BDD2EAA0BDD2EAB0B22
:100DC400DD2E831203130518E82EE92EE32E851C6D
:100DD400EC2EED2E0E2F051DF02EF12E0E2F851D5F
:100DE400F42EF52E0E2F051EF82EF92E0E2FC030E0
:100DF400A9002908A00000300A128A11C1240A128D
:100E04008A11831203138614061033300A128A11CE
:100E1400EF240A128A11222FC030A9002908A00049
:100E240000300A128A11C1240A128A111B300A12D4
:100E34008A11EF240A128A118312031306148610EE
:100E440083120313851E272F282FB22EA001A00A78
:100E540000300A128A11C1240A128A1180308312C6
:100E64000313A9002908A00000300A128A11C12422
:100E74000A128A1101300A128A11EF240A128A1105
:100E84000A128A1194250A128A1183120313210863
:100E9400AD002008AC00C030A9002908A000003033
:100EA4000A128A11C1240A128A113E300A128A11C6
:100EB400EF240A128A116430F0000030F10083122A
:100EC40003132D08F3002C08F2000A128A1150258E
:100ED4000A128A117008303E83120313A9002908EC
:100EE400A00001300A128A11C1240A128A110A30A0
:100EF400F8000030F9000A30F0000030F1008312ED
:100F040003132D08F3002C08F2000A128A1150254D
:100F14000A128A117108FB007008FA000A128A1179
:100F240016250A128A117808303E83120313A90089
:100F34002908A00001300A128A11C1240A128A1158
:100F44000A30F8000030F900831203132D08FB0067
:100F54002C08FA000A128A1116250A128A11780836
:100F6400303E83120313A9002908A00001300A129D
:100F74008A11C1240A128A11633083120313A9004F
:100F84002908A00001300A128A11C1240A128A1108
:100F94006D3083120313A9002908A00001300A123E
:100FA4008A11C1240A128A110030831203132D02FC
:100FB4000F3003192C020318E02FE12FE32F07153C
:100FC400E42F0711033083120313AB008A30AA0005
:100FD4005530A900A90BEC2FAA0BEC2FAB0BEC2F6F
:100FE400831203130519F72FF82FF22FB22E0A12CA
:0C0FF4008A11002883010A128A11492E7C
:08400000FF3FFF3FFF3FFF3FC0
:04400E00E42CFF3F60
:00000001FF
