:060000000A128A11ED2F27
:10000A008312031341088039C2004208CB00410819
:10001A00C2004207C3004308D200C01F1528162891
:10002A0017285214520803191B281C282C28520A74
:10003A00031D2028212829280030C1000030C000D3
:10004A000030BF000030BE00C017C10134280030A4
:10005A00C1000030C0000030BF000030BE003D08C3
:10006A008039C2004208CB063D08C2004207C300DD
:10007A004308D300BC1F422843284428531453087A
:10008A000319482849285928530A031D4D284E2880
:10009A0056280030BD000030BC000030BB000030E4
:1000AA00BA00BC17BD0161280030BD000030BC0099
:1000BA000030BB000030BA003D083C043B043A045F
:1000CA00031D6828692882280030C1000030C0005A
:1000DA000030BF000030BE008030C0047F30C10451
:1000EA004B08C2004208C1044108BD004008BC00D8
:1000FA003F08BB003E08BA00E1295208031D8628C2
:10010A00872890280030BD000030BC000030BB00BA
:10011A000030BA00E1295208C200C3014308C500F1
:10012A0053084202C400031CC50344087F3ECC00A6
:10013A0045080318013E003ECD004108CA004008A8
:10014A00C9003F08C8003E08C7000030C10000309F
:10015A00C0000030BF000030BE000030D1000030C7
:10016A00D0000030CF000030CE00D301062953085A
:10017A000319C028C128E1280130C2000310C70DA5
:10018A00C80DC90DCA0DC20BC3280130C200031025
:10019A00BE0DBF0DC00DC10DC20BCC28D11FD62874
:1001AA00D728D8283E140130C2000310CE0DCF0D37
:1001BA00D00DD10DC20BDA283D084A02031DEF28E3
:1001CA003C084902031DEF283B084802031DEF289B
:1001DA003A084702031CF228F328022951173A0861
:1001EA00C7023B08031C3B0FC8023C08031C3C0F18
:1001FA00C9023D08031C3D0FCA020130C200420871
:10020A00D3071A305302031C0B290C29BC284A08AD
:10021A0049044804470403191329142933294E149D
:10022A0033290130C2000310BE0DBF0DC00DC10D30
:10023A00C20B1829D11F2229232924293E1401304F
:10024A00C2000310CE0DCF0DD00DD10DC20B262941
:10025A00FF30CC070318CD0AFF30CD07C01F36295F
:10026A0037291629D301D11F3B293C295829FF30A8
:10027A004E05C200FF304F05C300FF305005C400D1
:10028A007F305105C500450844044304420403195C
:10029A004F2950295329D301D30A58293E1C5629DC
:1002AA00572958295029530803195C295D298E2991
:1002BA000130BE07003003180130BF0700300318B1
:1002CA000130C007003003180130C107411C6E29F4
:1002DA006F298E293E08C2003F08C3004008C400A7
:1002EA004108C5000130C600450DC50CC40CC30C3D
:1002FA00C20CC60B79294508C1004408C00043084E
:10030A00BF004208BE000130CC070318CD0A0030F6
:10031A00CD074D08803AFF0080307F02031D9729E0
:10032A00FF304C02031C9A299B29A929FF3083120A
:10033A000313CC000030CD000030C1000030C000F3
:10034A000030BF000030BE00831203134D08803A0C
:10035A00FF0080307F02031DB42901304C020318CC
:10036A00B729B829C52983120313CC01CD0100305E
:10037A00C1000030C0000030BF000030BE00CB0119
:10038A00831203134C08C2004208D200521CCE2921
:10039A00CF29D129C017D5297F30C2004208C0050C
:1003AA005208C2000310420CC3004308C1004B08A4
:1003BA00C2004208C1047928080083120313860187
:1003CA0089018801870185010F308316031385008F
:1003DA000130860089018801870183160317880185
:1003EA0010308900B130831203139F00B030831696
:1003FA0003139F00383083120313D4005408A80053
:10040A0000300A128A1565250A128A110E308312E3
:10041A000313D4005408A80000300A128A1565256F
:10042A000A128A11831203139F14262A83160313AE
:10043A001E0883120313D400D5015408E800550896
:10044A00E9009F18292A2A2A1B2A1E08D400D50146
:10045A005408EC005508ED006C086D04031D362A9B
:10046A00372A3B2A6908E7006808E6006C036D042E
:10047A00031D402A412A492A6808003EE600690805
:10048A000318013E013EE70002306C066D04031DAD
:10049A004F2A502A582A6808003EE60069080318BD
:1004AA00013E023EE70003306C066D04031D5E2A1E
:1004BA005F2A672A6808003EE60069080318013EB9
:1004CA00033EE700051C6A2A6B2A982B8030D40069
:1004DA005408A80000300A128A1565250A128A11E2
:1004EA0023300A128A15DF250A128A114430831230
:1004FA000313BD007F30BC00C030BB000030BA001F
:10050A003F30A300C030A2000030A1000030A0009C
:10051A006608F0006708F1000030F11BFF30F200B6
:10052A00F30001300A128A1546270A128A11730843
:10053A0083120313A7007208A6007108A5007008A9
:10054A00A4000A128A118C240A128A118312031334
:10055A002308C1002208C0002108BF002008BE00ED
:10056A000A128A1105200A128A11831203133D08FE
:10057A0083160313A300831203133C088316031381
:10058A00A200831203133B0883160313A1008312EC
:10059A0003133A0883160313A000230883120313D4
:1005AA00A70083160313220883120313A6008316D7
:1005BA000313210883120313A500831603132008CB
:1005CA0083120313A4004230A300C830A2000030F3
:1005DA00A1000030A0000A128A118C240A128A1182
:1005EA00831203132308BD002208BC002108BB00A4
:1005FA002008BA000A128A15CA260A128A11831218
:10060A0003133B08E1003A08E0000A30A400003076
:10061A00A5006430F6000030F7006108F9006008B0
:10062A00F8000A128A1561260A128A1177088312BB
:10063A000313A7007608A6000A128A1506260A12CC
:10064A008A11831203132408303ED4005408A800E8
:10065A0001300A128A1565250A128A110A30831294
:10066A000313A4000030A5000A30F6000030F7009A
:10067A006108F9006008F8000A128A1561260A1250
:10068A008A11770883120313A7007608A6000A12B4
:10069A008A1506260A128A11831203132408303E89
:1006AA00D4005408A80001300A128A1565250A12D6
:1006BA008A110A3083120313A4000030A5006108CE
:1006CA00A7006008A6000A128A1506260A128A11CD
:1006DA00831203132408303ED4005408A8000130C2
:1006EA000A128A1565250A128A1127308312031302
:1006FA00D4005408A80001300A128A1565250A1286
:10070A008A11433083120313D4005408A80001301D
:10071A000A128A1565250A128A118312031305180B
:10072A00972B982B922B851C9B2B9C2B5A2CC030D9
:10073A00D4005408A80000300A128A1565250A1246
:10074A008A1118300A128A15DF250A128A11053011
:10075A00F6000030F700831203136108F100600805
:10076A00F0000930F2000030F3000A128A159325CE
:10077A000A128A117108F9007008F8000A128A151B
:10078A0061260A128A117608203E83120313E200B8
:10079A0077080318013E003EE3000A30A400003047
:1007AA00A5006430F6000030F7006308F90062081B
:1007BA00F8000A128A1561260A128A11770883122A
:1007CA000313A7007608A6000A128A1506260A123B
:1007DA008A11831203132408303ED4005408A80057
:1007EA0001300A128A1565250A128A110A30831203
:1007FA000313A4000030A5000A30F6000030F70009
:10080A006308F9006208F8000A128A1561260A12BA
:10081A008A11770883120313A7007608A6000A1222
:10082A008A1506260A128A11831203132408303EF7
:10083A00D4005408A80001300A128A1565250A1244
:10084A008A110A3083120313A4000030A50063083A
:10085A00A7006208A6000A128A1506260A128A1139
:10086A00831203132408303ED4005408A800013030
:10087A000A128A1565250A128A1127308312031370
:10088A00D4005408A80001300A128A1565250A12F4
:10089A008A11463083120313D4005408A800013089
:1008AA000A128A1565250A128A118312031363082C
:1008BA00803AFF0080307F02031D652C633062029C
:1008CA00031C682C692C172A83120313A801A80A8F
:1008DA0000300A128A1565250A128A11803083129D
:1008EA000313D4005408A80000300A128A1565259B
:1008FA000A128A1101300A128A15DF250A128A1190
:10090A00831203130714172A0A128A110028831262
:10091A00031323088039A8002808AD002308A8007B
:10092A002807A9002908B300A21F9C2C9D2C9E2CE5
:10093A00331433080319A22CA32CB22C330A031D37
:10094A00A72CA82CB02C0030A3000030A200003045
:10095A00A1000030A000A217BA2C0030A30000307A
:10096A00A2000030A1000030A00027088039A800AA
:10097A002808AD062708A8002807A9002908B200F8
:10098A00A61FC82CC92CCA2C321432080319CE2C23
:10099A00CF2CDE2C320A031DD32CD42CDC2C0030B5
:1009AA00A7000030A6000030A5000030A400A6175A
:1009BA00E62C0030A7000030A6000030A500003069
:1009CA00A40032080319EA2CEB2CF02C3308031D7F
:1009DA00EF2CF02CF92C0030A3000030A2000030DC
:1009EA00A1000030A000EC2F2008A8002808F00081
:1009FA0026080A128A15B8250A128A117108831262
:100A0A000313B9007008B8003808A800A901AA01A0
:100A1A00AB012B08B1002A08B0002908AF0028084A
:100A2A00AE003908A800A901AA01AB012B08B7003A
:100A3A002A08B6002908B5002808B4002108A80029
:100A4A002808F00025080A128A15B8250A128A1100
:100A5A00710883120313B9007008B8003808A80097
:100A6A00A901AA01AB012808AE0729080311031836
:100A7A00013E0319412DAF072A0803110318013E4D
:100A8A000319482DB0072B0803110318013E031957
:100A9A004F2DB1073908A800A901AA01AB012808FE
:100AAA00B407290803110318013E03195D2DB50780
:100ABA002A0803110318013E0319642DB6072B08EF
:100ACA0003110318013E03196B2DB7072208A8006A
:100ADA002808F00024080A128A15B8250A128A1171
:100AEA00710883120313B9007008B8003808A80007
:100AFA00A901AA01AB012808AE07290803110318A6
:100B0A00013E0319892DAF072A0803110318013E74
:100B1A000319902DB0072B0803110318013E03197E
:100B2A00972DB1073908A800A901AA01AB01280825
:100B3A00B407290803110318013E0319A52DB507A7
:100B4A002A0803110318013E0319AC2DB6072B0816
:100B5A0003110318013E0319B32DB7070830A80083
:100B6A000310AE0DAF0DB00DB10DA80BB52D2108B8
:100B7A00A8002808F00024080A128A15B8250A12C3
:100B8A008A11710883120313B9007008B800380873
:100B9A00A8003908A900AA01AB012808AE0729084C
:100BAA0003110318013E0319DB2DAF072A080311AD
:100BBA000318013E0319E22DB0072B08031103188D
:100BCA00013E0319E92DB1072008A8002808F00002
:100BDA0025080A128A15B8250A128A117108831281
:100BEA000313B9007008B8003808A8003908A9002A
:100BFA00AA01AB012808AE07290803110318013E10
:100C0A000319082EAF072A0803110318013E031916
:100C1A000F2EB0072B0803110318013E0319162ED5
:100C2A00B1070830A8000310AE0DAF0DB00DB10D1D
:100C3A00A80B182E2008A8002808F00024080A1279
:100C4A008A15B8250A128A11710883120313B9008A
:100C5A007008B8003808A8003908A900AA01AB0131
:100C6A002808AE07290803110318013E03193E2E6E
:100C7A00AF072A0803110318013E0319452EB007CE
:100C8A002B0803110318013E03194C2EB107210842
:100C9A00A8002808F00026080A128A15B8250A12A0
:100CAA008A11710883120313B9007008B800380852
:100CBA00A8003908A900AA01AB012808B407290825
:100CCA0003110318013E03196B2EB5072A080311F5
:100CDA000318013E0319722EB6072B0803110318D5
:100CEA00013E0319792EB7072208A8002808F00048
:100CFA0025080A128A15B8250A128A117108831260
:100D0A000313B9007008B8003808A8003908A90008
:100D1A00AA01AB012808B407290803110318013EE8
:100D2A000319982EB5072A0803110318013E03195F
:100D3A009F2EB6072B0803110318013E0319A62E8E
:100D4A00B7072208A8002808F00026080A128A1500
:100D5A00B8250A128A11710883120313B9007008A0
:100D6A00B8003808A8003908A900AA01AB01083060
:100D7A000310A80DA90DAA0DAB0DFF3E031DBD2E34
:100D8A002808B407290803110318013E0319CE2EB7
:100D9A00B5072A0803110318013E0319D52EB60711
:100DAA002B0803110318013E0319DC2EB7072E087E
:100DBA00A8002F08A9003008AA003108AB00183093
:100DCA000310AB0CAA0CA90CA80CFF3E031DE52EC0
:100DDA002808B407290803110318013E0319F62E3F
:100DEA00B5072A0803110318013E0319FD2EB60799
:100DFA002B0803110318013E0319042FB707083003
:100E0A00A8000310AE0DAF0DB00DB10DA80B062F43
:100E1A0033083207A800A901A90D2808823EB800A4
:100E2A0029080318013EFF3EB900382F0130A800F7
:100E3A000310B40DB50DB60DB70DA80B1D2FB11FBC
:100E4A00272F282F292F34140130A8000310AE0DA4
:100E5A00AF0DB00DB10DA80B2B2FFF30B80703183B
:100E6A00B90AFF30B907B61F3B2F3C2F1B2FB2011F
:100E7A00B11F402F412F5D2FFF302E05A800FF30F4
:100E8A002F05A900FF303005AA007F303105AB00DD
:100E9A002B082A04290428040319542F552F582FE4
:100EAA00B201B20A5D2F341C5B2F5C2F5D2F552FC8
:100EBA0032080319612F622F932F0130B4070030D3
:100ECA0003180130B507003003180130B6070030A7
:100EDA0003180130B707371C732F742F932F340868
:100EEA00A8003508A9003608AA003708AB00013067
:100EFA00AC002B0DAB0CAA0CA90CA80CAC0B7E2FCA
:100F0A002B08B7002A08B6002908B5002808B4003B
:100F1A000130B8070318B90A0030B9073908803A0E
:100F2A00FF0080307F02031D9C2FFF303802031C14
:100F3A009F2FA02FAB2F7F3083120313B70080306F
:100F4A00B6000030B5000030B400E02F831203135E
:100F5A003908803AFF0080307F02031DB62F013026
:100F6A0038020318B92FBA2FC62F00308312031381
:100F7A00B7000030B6000030B5000030B400AD0153
:100F8A00E02F831203133808A8002808B300FF30A3
:100F9A00B405FF30B5057F30B6050030B705331C00
:100FAA00D72FD82FD92FB6173308A8000310280C2B
:100FBA00A9002908B7002D08A8002808B70437088F
:100FCA00A3003608A2003508A1003408A0000800D2
:100FDA008313563084006E300A128A154E250A127F
:100FEA008A1183160313A001A101A201A30183019F
:100FFA000A128A11E22908308A000408840A820740
:10100A000034413442344F34563445342034423467
:10101A004F34443459342034543445344D345034E4
:10102A0045345234413454345534523445340034FE
:10103A0046344134523445344E34483445344934C4
:10104A0054343A340034633465346C346334693468
:08105A00753473343A3400349C
:101A9C0064008001840A04060319003404064F2DE7
:101AAC00FF30F0070318F10AFF30F107700A031D2D
:101ABC00632D710A031D632D642D562D08008312AE
:101ACC000313A90029186B2D6F2D8312031309140E
:101ADC00722D831203130910280888000A128A1524
:101AEC007A250A128A150800831203138914E83028
:101AFC00F0000330F1000A128A1556250A128A15D5
:101B0C00831203138910E830F0000330F1000A123D
:101B1C008A1556250A128A150800F401F501701C65
:101B2C00982D992D9F2D7208F4070318F50A730848
:101B3C00F50701300310F20DF30DFF3E031DA02D30
:101B4C0001300310F10CF00CFF3E031DA72D7008A3
:101B5C007104031DB22DB32D952D7508F100740879
:101B6C00F0000800F800F401F5017008F200F30130
:101B7C007208F6007308F700781CC52DC62DCC2D05
:101B8C007608F4070318F50A7708F50701300310F7
:101B9C00F60DF70DFF3E031DCD2D0310F80C780844
:101BAC00031DD92DDA2DC22D7508F1007408F00033
:101BBC00080083120313AB00F92D2B0884000A12C2
:101BCC008A1500200A128A15AA002A08A8000130DA
:101BDC000A128A1565250A128A150130831203131D
:101BEC00AA002A08AB072B0884000A128A150020C9
:101BFC000A128A15003A031D042E052EE32D080047
:101C0C00FD0183120313A71F0C2E0D2E142EA609F3
:101C1C00A709A60A0319A70AFD01FD0AA51F172E7D
:101C2C00182E1D2EA409A509A40A0319A50A240817
:101C3C0025040319222E232E522EFC01FC0A312ED0
:101C4C0001300310A40DA50DFF3E031D272E0130FE
:101C5C00FB007B08FC07A51F342E352E262E2508ED
:101C6C002702031D3B2E24082602031C3E2E3F2E6A
:101C7C00452E2408A6022508031CA703A702013041
:101C8C000310A50CA40CFF3E031D462E0130FC02D4
:101C9C00031D512E522E352E7D080319562E572E0C
:101CAC005C2EA609A709A60A0319A70A2708A500EE
:101CBC002608A400080083120313A101F71F672E46
:101CCC00682E6F2EF609F709F60A0319F70AA10117
:101CDC00A10AF91F722E732E7C2EF809F909F80A45
:101CEC000319F90A0130FA007A08A106A201A3012E
:101CFC00760877040319832E842EBB2EA001A00A2C
:101D0C00922E01300310F60DF70DFF3E031D882EA9
:101D1C000130FA007A08A007F71F952E962E872E11
:101D2C0001300310A20DA30DFF3E031D972E770863
:101D3C007902031DA32E76087802031CA62EA72E6B
:101D4C00AE2E7608F8027708031CF903F902221468
:101D5C0001300310F70CF60CFF3E031DAF2E0130C3
:101D6C00A002031DBA2EBB2E962E21080319BF2EDE
:101D7C00C02EC52EA209A309A20A0319A30A23087F
:101D8C00F7002208F60008000310831203133C0D21
:101D9C003D0DBE003E08C4004408031DD62ED72EB0
:101DAC00E02E0030BD000030BC000030BB00003025
:101DBC00BA00452F3A08BE003B08BF003C08C000E3
:101DCC003D08C1001F300310C10CC00CBF0CBE0C71
:101DDC00FF3E031DE92E3E08C2004208C300BC179B
:101DEC00FF30BA05FF30BB05FF30BC050030BD0528
:101DFC009630C402C41F032F042F1E2F4408803AB0
:101E0C00973E03180A2F0B2F0C2FD72E01300310DF
:101E1C00BD0CBC0CBB0CBA0CFF3E031D0D2F0130CE
:101E2C00BE003E08C407031D1C2F1D2F0C2F352F81
:101E3C0020304402031C232F242F302FD72E0130A7
:101E4C00BE000310BA0DBB0DBC0DBD0DBE0B272F74
:101E5C000130C4024408031D342F352F252F4308AD
:101E6C000319392F3A2F452FBA09BB09BC09BD09F3
:101E7C00BA0A0319BB0A0319BC0A0319BD0A0800E4
:101E8C00F800780803194B2F4C2F602FF31F4F2F9E
:101E9C00502F602F7009FA007109FB007209FC00C9
:101EAC007309FD00FA0A0319FB0A0319FC0A03194A
:101EBC00FD0A682F7308FD007208FC007108FB0016
:101ECC007008FA007308720471047004031D6F2FFC
:101EDC00702F792F0030F3000030F2000030F10049
:101EEC000030F000FF2F9630F4007408F9008B2FAF
:101EFC000130F4007408F90701300310FD0CFC0CE0
:101F0C00FB0CFA0CFF3E031D832FFE307D05031DD9
:101F1C00902F912F7E2FAD2F0130F4007408F9070C
:101F2C000130FA07003003180130FB0700300318AA
:101F3C000130FC07003003180130FD07013003109D
:101F4C00FD0CFC0CFB0CFA0CFF3E031DA52FFF3007
:101F5C007D05031DB22FB32F922FBF2F0130F90235
:101F6C000130F4000310FA0DFB0DFC0DFD0DF40B0C
:101F7C00B82FFC1BC22FC32FC92F023079020318B4
:101F8C00C82FC92FB42F7918CC2FCD2FD52FFF30B8
:101F9C00FA05FF30FB057F30FC05FF30FD05031013
:101FAC00F90C7908F400F501F601F701183003106B
:101FBC00F40DF50DF60DF70DFF3E031DDD2F740826
:101FCC00FA047508FB047608FC047708FD0478080D
:101FDC000319F12FF22FF72FF31FF52FF62FF72FF1
:101FEC00FD177D08F3007C08F2007B08F1007A08ED
:041FFC00F0000800E9
:08400000FF3FFF3FFF3FFF3FC0
:04400E00E42CFF3F60
:00000001FF
