:060000000A128A11FC2F18
:100E2E00FF30F0070318F10AFF30F107700A031DB7
:100E3E00242F710A031D242F252F172F0800F300CE
:100E4E0073182A2F2E2F831203130914312F831296
:100E5E0003130910720888000A128A1139270A1220
:100E6E008A110800831203138914E830F00003304E
:100E7E00F1000A128A1117270A128A11831203131C
:100E8E008910E830F0000330F1000A128A1117279A
:100E9E000A128A1108008312031385018601870145
:100EAE0089018801FF30831603138500FF30870008
:100EBE00860188018901831603178901880138305C
:100ECE00F4007408F20000300A128A1126270A1262
:100EDE008A110E30F4007408F20000300A128A11E2
:100EEE0026270A128A118030F4007408F2000030AE
:100EFE000A128A1126270A128A11F501F601F70144
:100F0E00F80183120313051C8D2F8E2F902FF501E0
:100F1E00F601851C932F942F982F0130F500003089
:100F2E00F600051D9B2F9C2FA02F0230F5000030E0
:100F3E00F600851DA32FA42FA82F0330F500003037
:100F4E00F600071CAB2FAC2FAE2FF701F801871C54
:100F5E00B12FB22FB62F0130F7000030F800071D69
:100F6E00B92FBA2FBE2F0230F7000030F800871DC0
:100F7E00C12FC22FC62F0330F7000030F8007808BB
:100F8E00803AF4007608803A7402031DD02F75085B
:100F9E0077020318D32FD42FD82F831203130614DE
:100FAE0086107608803AF4007808803A7402031DA1
:100FBE00E22F770875020318E52FE62FEA2F83122A
:100FCE0003138614061078087606031DF02F770893
:100FDE007506031DF32FF42F842F8312031386102F
:100FEE000610842F0A128A11002883010A128A1110
:020FFE00522F70
:08400000FF3FFF3FFF3FFF3FC0
:04400E00E42CFF3F60
:00000001FF
