:060000000A128A11E82F2C
:100022000310831203133C0D3D0DBE003E08C400B5
:100032004408031D1D281E2827280030BD0000305B
:10004200BC000030BB000030BA008C283A08BE0069
:100052003B08BF003C08C0003D08C1001F30031030
:10006200C10CC00CBF0CBE0CFF3E031D30283E0865
:10007200C2004208C300BC17FF30BA05FF30BB05FF
:10008200FF30BC050030BD059630C402C41F4A28AB
:100092004B2865284408803A973E03185128522875
:1000A20053281E2801300310BD0CBC0CBB0CBA0C2B
:1000B200FF3E031D54280130BE003E08C407031D45
:1000C2006328642853287C2820304402031C6A28B1
:1000D2006B2877281E280130BE000310BA0DBB0D15
:1000E200BC0DBD0DBE0B6E280130C4024408031DB9
:1000F2007B287C286C2843080319802881288C28B7
:10010200BA09BB09BC09BD09BA0A0319BB0A03191A
:10011200BC0A0319BD0A080083120313410880397F
:10012200C2004208CB004108C2004207C300430894
:10013200D200C01F9D289E289F28521452080319DE
:10014200A328A428B428520A031DA828A928B12844
:100152000030C1000030C0000030BF000030BE00DF
:10016200C017C101BC280030C1000030C0000030FF
:10017200BF000030BE003D088039C2004208CB06F5
:100182003D08C2004207C3004308D300BC1FCA286F
:10019200CB28CC28531453080319D028D128E1289E
:1001A200530A031DD528D628DE280030BD000030B2
:1001B200BC000030BB000030BA00BC17BD01E9280A
:1001C2000030BD000030BC000030BB000030BA007F
:1001D2003D083C043B043A04031DF028F1280A2997
:1001E2000030C1000030C0000030BF000030BE004F
:1001F2008030C0047F30C1044B08C2004208C104F1
:100202004108BD004008BC003F08BB003E08BA00E0
:10021200692A5208031D0E290F2918290030BD0032
:100222000030BC000030BB000030BA00692A52081E
:10023200C200C3014308C50053084202C400031CA4
:10024200C50344087F3ECC0045080318013E003E2A
:10025200CD004108CA004008C9003F08C8003E0856
:10026200C7000030C1000030C0000030BF000030C5
:10027200BE000030D1000030D0000030CF0000308E
:10028200CE00D3018E295308031948294929692927
:100292000130C2000310C70DC80DC90DCA0DC20B33
:1002A2004B290130C2000310BE0DBF0DC00DC10DA0
:1002B200C20B5429D11F5E295F2960293E140130E7
:1002C200C2000310CE0DCF0DD00DD10DC20B62298D
:1002D2003D084A02031D77293C084902031D77297C
:1002E2003B084802031D77293A084702031C7A2972
:1002F2007B298A2951173A08C7023B08031C3B0F86
:10030200C8023C08031C3C0FC9023D08031C3D0FF8
:10031200CA020130C2004208D3071A305302031C3A
:100322009329942944294A08490448044704031993
:100332009B299C29BB294E14BB290130C200031002
:10034200BE0DBF0DC00DC10DC20BA029D11FAA2920
:10035200AB29AC293E140130C2000310CE0DCF0DE3
:10036200D00DD10DC20BAE29FF30CC070318CD0A38
:10037200FF30CD07C01FBE29BF299E29D301D11F3F
:10038200C329C429E029FF304E05C200FF304F05C2
:10039200C300FF305005C4007F305105C500450839
:1003A2004404430442040319D729D829DB29D30181
:1003B200D30AE0293E1CDE29DF29E029D829530887
:1003C2000319E429E529162A0130BE070030031873
:1003D2000130BF07003003180130C0070030031896
:1003E2000130C107411CF629F729162A3E08C2002E
:1003F2003F08C3004008C4004108C5000130C600E0
:10040200450DC50CC40CC30CC20CC60B012A450811
:10041200C1004408C0004308BF004208BE000130CA
:10042200CC070318CD0A0030CD074D08803AFF00F3
:1004320080307F02031D1F2AFF304C02031C222A38
:10044200232A312AFF3083120313CC000030CD005F
:100452000030C1000030C0000030BF000030BE00DC
:10046200831203134D08803AFF0080307F02031D80
:100472003C2A01304C0203183F2A402A4D2A83129B
:100482000313CC01CD010030C1000030C0000030A8
:10049200BF000030BE00CB01831203134C08C20020
:1004A2004208D200521C562A572A592AC0175D2ADE
:1004B2007F30C2004208C0055208C2000310420C3D
:1004C200C3004308C1004B08C2004208C10401290D
:1004D20008008130831203139F00B0308316031388
:1004E2009F00831203139F149F18782A792A752A72
:1004F200831603131E0883120313D400D501540874
:10050200EB005508EC001E08D400D5015408E500A4
:100512005508E60065086604031D902A912A952A6B
:100522006C08E4006B08E30065036604031D9A2A65
:100532009B2AA32A6B08003EE3006C080318013EC5
:10054200013EE400023065066604031DA92AAA2AB8
:10055200B22A6B08003EE3006C080318013E023E1B
:10056200E400033065066604031DB82AB92AC12ACD
:100572006B08003EE3006C080318013E033EE400F2
:100582008030D4005408A20000300A128A15422694
:100592000A128A11E830F0000330F10083120313CB
:1005A2006408F3006308F2000A128A15DF260A12B1
:1005B2008A11710883120313D7007008D6000A301B
:1005C200F9000030FA006430F0000030F1006408F5
:1005D200F3006308F2000A128A15DF260A128A1152
:1005E2007108FC007008FB000A128A1584260A12A0
:1005F2008A117A0883120313D9007908D8000A30C5
:10060200F9000030FA000A30F0000030F10064080E
:10061200F3006308F2000A128A15DF260A128A1111
:100622007108FC007008FB000A128A1584260A125F
:100632008A117A0883120313DB007908DA000A3080
:10064200F9000030FA006408FC006308FB000A129B
:100652008A1584260A128A117A0883120313DD008E
:100662007908DC005608303ED4005408A20001305C
:100672000A128A1542260A128A1183120313580893
:10068200303ED4005408A20001300A128A154226D4
:100692000A128A11831203135A08303ED4005408F6
:1006A200A20001300A128A1542260A128A11831206
:1006B20003135C08303ED4005408A20001300A1231
:1006C2008A1542260A128A11443083120313BD008E
:1006D2007F30BC00C030BB000030BA003F30A30006
:1006E200C030A2000030A1000030A0006308F0007A
:1006F2006408F1000030F11BFF30F200F30001301A
:100702000A128A1546270A128A11730883120313E2
:10071200A7007208A6007108A5007008A4000A12BA
:100722008A1187240A128A11831203132308C10033
:100732002208C0002108BF002008BE000A128A1148
:100742008D200A128A11831203133D0883160313A4
:10075200A300831203133C0883160313A20083121F
:1007620003133B0883160313A100831203133A08F1
:1007720083160313A000863083120313D400540897
:10078200A20000300A128A1542260A128A11831622
:100792000313230883120313A700831603132208EB
:1007A20083120313A6008316031321088312031373
:1007B200A50083160313200883120313A4004230FA
:1007C200A300C830A2000030A1000030A0000A122D
:1007D2008A1187240A128A11831203132308BD0087
:1007E2002208BC002108BB002008BA000A128A11A4
:1007F20011200A128A11831203133B08DF003A0800
:10080200DE000A30F9000030FA006430F0000030F7
:10081200F1005F08F3005E08F2000A128A15DF2673
:100822000A128A117108FC007008FB000A128A156C
:1008320084260A128A117908303E83120313D400E7
:100842005408A20001300A128A1542260A128A119D
:100852000A30F9000030FA000A30F0000030F100EE
:10086200831203135F08F3005E08F2000A128A156E
:10087200DF260A128A117108FC007008FB000A12B6
:100882008A1584260A128A117908303E83120313CC
:10089200D4005408A20001300A128A1542260A1214
:1008A2008A110A30F9000030FA00831203135F083C
:1008B200FC005E08FB000A128A1584260A128A11BD
:1008C2007908303E83120313D4005408A200013089
:1008D2000A128A1542260A128A114330831203131E
:1008E200D4005408A20001300A128A1542260A12C4
:1008F2008A11C03083120313D4005408A2000030BE
:100902000A128A1542260A128A1108008312031358
:1009120023088039A8002808AD002308A80028076A
:10092200A9002908B300A21F972C982C992C3314E4
:10093200330803199D2C9E2CAD2C330A031DA22CC7
:10094200A32CAB2C0030A3000030A2000030A10089
:100952000030A000A217B52C0030A3000030A20086
:100962000030A1000030A00027088039A800280824
:10097200AD062708A8002807A9002908B200A61F6B
:10098200C32CC42CC52C321432080319C92CCA2C0E
:10099200D92C320A031DCE2CCF2CD72C0030A70025
:1009A2000030A6000030A5000030A400A617E12CFC
:1009B2000030A7000030A6000030A5000030A400DF
:1009C20032080319E52CE62CEB2C3308031DEA2C24
:1009D200EB2CF42C0030A3000030A2000030A10068
:1009E2000030A000E72F2008A8002808F000260801
:1009F2000A128A15EA250A128A1171088312031350
:100A0200B9007008B8003808A800A901AA01AB0112
:100A12002B08B1002A08B0002908AF002808AE0050
:100A22003908A800A901AA01AB012B08B7002A08BE
:100A3200B6002908B5002808B4002108A800280833
:100A4200F00025080A128A15EA250A128A1171088D
:100A520083120313B9007008B8003808A800A9016E
:100A6200AA01AB012808AE07290803110318013EA9
:100A720003193C2DAF072A0803110318013E03197D
:100A8200432DB0072B0803110318013E03194A2D09
:100A9200B1073908A800A901AA01AB012808B407C7
:100AA200290803110318013E0319582DB5072A0816
:100AB20003110318013E03195F2DB6072B0803111A
:100AC2000318013E0319662DB7072208A80028085B
:100AD200F00024080A128A15EA250A128A117108FE
:100AE20083120313B9007008B8003808A800A901DE
:100AF200AA01AB012808AE07290803110318013E19
:100B02000319842DAF072A0803110318013E0319A4
:100B12008B2DB0072B0803110318013E0319922DE8
:100B2200B1073908A800A901AA01AB012808B40736
:100B3200290803110318013E0319A02DB5072A083D
:100B420003110318013E0319A72DB6072B08031141
:100B52000318013E0319AE2DB7070830A800031091
:100B6200AE0DAF0DB00DB10DA80BB02D2108A80030
:100B72002808F00024080A128A15EA250A128A11A6
:100B8200710883120313B9007008B8003808A8006E
:100B92003908A900AA01AB012808AE0729080311E8
:100BA2000318013E0319D62DAF072A0803110318B3
:100BB200013E0319DD2DB0072B0803110318013E76
:100BC2000319E42DB1072008A8002808F000250821
:100BD2000A128A15EA250A128A117108831203136E
:100BE200B9007008B8003808A8003908A900AA019D
:100BF200AB012808AE07290803110318013E0319A7
:100C0200032EAF072A0803110318013E03190A2E07
:100C1200B0072B0803110318013E0319112EB10767
:100C22000830A8000310AE0DAF0DB00DB10DA80B2A
:100C3200132E2008A8002808F00024080A128A159A
:100C4200EA250A128A11710883120313B900700887
:100C5200B8003808A8003908A900AA01AB01280881
:100C6200AE07290803110318013E0319392EAF07F5
:100C72002A0803110318013E0319402EB0072B085E
:100C820003110318013E0319472EB1072108A800DA
:100C92002808F00026080A128A15EA250A128A1183
:100CA200710883120313B9007008B8003808A8004D
:100CB2003908A900AA01AB012808B40729080311C1
:100CC2000318013E0319662EB5072A0803110318FB
:100CD200013E03196D2EB6072B0803110318013EBE
:100CE2000319742EB7072208A8002808F000250867
:100CF2000A128A15EA250A128A117108831203134D
:100D0200B9007008B8003808A8003908A900AA017B
:100D1200AB012808B407290803110318013E03197F
:100D2200932EB5072A0803110318013E03199A2EC0
:100D3200B6072B0803110318013E0319A12EB707AA
:100D42002208A8002808F00026080A128A15EA25B7
:100D52000A128A11710883120313B9007008B800CD
:100D62003808A8003908A900AA01AB01083003100D
:100D7200A80DA90DAA0DAB0DFF3E031DB82E280824
:100D8200B407290803110318013E0319C92EB50738
:100D92002A0803110318013E0319D02EB6072B08A7
:100DA20003110318013E0319D72EB7072E08A80016
:100DB2002F08A9003008AA003108AB001830031030
:100DC200AB0CAA0CA90CA80CFF3E031DE02E2808B0
:100DD200B407290803110318013E0319F12EB507C0
:100DE2002A0803110318013E0319F82EB6072B082F
:100DF20003110318013E0319FF2EB7070830A8009C
:100E02000310AE0DAF0DB00DB10DA80B012F3308BD
:100E12003207A800A901A90D2808823EB8002908B6
:100E22000318013EFF3EB900332F0130A800031022
:100E3200B40DB50DB60DB70DA80B182FB11F222F8B
:100E4200232F242F34140130A8000310AE0DAF0D50
:100E5200B00DB10DA80B262FFF30B8070318B90A41
:100E6200FF30B907B61F362F372F162FB201B11F29
:100E72003B2F3C2F582FFF302E05A800FF302F05A7
:100E8200A900FF303005AA007F303105AB002B08E6
:100E92002A042904280403194F2F502F532FB2017B
:100EA200B20A582F341C562F572F582F502F320862
:100EB20003195C2F5D2F8E2F0130B4070030031809
:100EC2000130B507003003180130B60700300318AF
:100ED2000130B707371C6E2F6F2F8E2F3408A800F2
:100EE2003508A9003608AA003708AB000130AC006B
:100EF2002B0DAB0CAA0CA90CA80CAC0B792F2B0850
:100F0200B7002A08B6002908B5002808B400013045
:100F1200B8070318B90A0030B9073908803AFF0048
:100F220080307F02031D972FFF303802031C9A2F57
:100F32009B2FA62F7F3083120313B7008030B60099
:100F42000030B5000030B400DB2F831203133908E0
:100F5200803AFF0080307F02031DB12F013038023A
:100F62000318B42FB52FC12F003083120313B7001B
:100F72000030B6000030B5000030B400AD01DB2F08
:100F8200831203133808A8002808B300FF30B40501
:100F9200FF30B5057F30B6050030B705331CD22FC0
:100FA200D32FD42FB6173308A8000310280CA9009A
:100FB2002908B7002D08A8002808B7043708A3009D
:100FC2003608A2003508A1003408A00008008312E8
:100FD2000313E101E201E301E401E501E601E701B6
:100FE200E801E901EA01EB01EC0183160313A00118
:0E0FF200A101A201A30183010A128A15112E8A
:101BD400F800F401F5017008F200F3017208F60050
:101BE4007308F700781CF72DF82DFE2D7608F407FE
:101BF4000318F50A7708F50701300310F60DF70D01
:101C0400FF3E031DFF2D0310F80C7808031D0B2E57
:101C14000C2EF42D7508F1007408F00008008312EE
:101C24000313850188018901FF308316031385009E
:101C3400890188010130831603178800890138302F
:101C440083120313E0006008A20000300A128A1510
:101C540042260A128A150E3083120313E00060082C
:101C6400A20000300A128A1542260A128A150A12A4
:101C74008A116A220A128A15392E0A128A11002838
:101C840083120313A3002318482E4C2E831203132C
:101C940009144F2E83120313091022088800891493
:101CA400A401A501013083120313A4070318A50A94
:101CB4000030A5072508803AFF0080307F02031D0D
:101CC400652E64302402031C682E692E542E831260
:101CD40003138910A601A701013083120313A60779
:101CE4000318A70A0030A7072708803AFF008030AE
:101CF4007F02031D7F2E64302602031C822E832E56
:101D04006E2E080083120313A101FC1F8A2E8B2E52
:101D1400922EFB09FC09FB0A0319FC0AA101A10A82
:101D2400FA1F952E962E9B2EF909FA09F90A031922
:101D3400FA0A79087A040319A02EA12ED02EA00144
:101D4400A00AAF2E01300310F90DFA0DFF3E031D5A
:101D5400A52E0130FD007D08A007FA1FB22EB32E78
:101D6400A42E7A087C02031DB92E79087B02031C79
:101D7400BC2EBD2EC32E7908FB027A08031CFC037B
:101D8400FC0201300310FA0CF90CFF3E031DC42EB3
:101D94000130A002031DCF2ED02EB32E210803192B
:101DA400D42ED52EDA2EFB09FC09FB0A0319FC0AF2
:101DB4007C08FA007B08F9000800F601F11FE32E05
:101DC400E42EEB2EF009F109F00A0319F10AF601E9
:101DD400F60AF31FEE2EEF2EF82EF209F309F20A9B
:101DE4000319F30A0130F4007408F606F701F80148
:101DF400700871040319FF2E002F372FF501F50A1F
:101E04000E2F01300310F00DF10DFF3E031D042FC2
:101E14000130F4007408F507F11F112F122F032F5E
:101E240001300310F70DF80DFF3E031D132F710849
:101E34007302031D1F2F70087202031C222F232F0D
:101E44002A2F7008F2027108031CF303F3027714BB
:101E540001300310F10CF00CFF3E031D2B2F013059
:101E6400F502031D362F372F122F760803193B2F47
:101E74003C2F412FF709F809F70A0319F80A7808E3
:101E8400F1007708F0000800F800780803194B2FD8
:101E94004C2F602FF31F4F2F502F602F7009FA0023
:101EA4007109FB007209FC007309FD00FA0A0319A9
:101EB400FB0A0319FC0A0319FD0A682F7308FD00C5
:101EC4007208FC007108FB007008FA0073087204C1
:101ED40071047004031D6F2F702F792F0030F300ED
:101EE4000030F2000030F1000030F000FF2F963097
:101EF400F4007408F9008B2F0130F4007408F9071A
:101F040001300310FD0CFC0CFB0CFA0CFF3E031D0E
:101F1400832FFE307D05031D902F912F7E2FAD2F33
:101F24000130F4007408F9070130FA07003003188F
:101F34000130FB07003003180130FC0700300318A0
:101F44000130FD0701300310FD0CFC0CFB0CFA0CF6
:101F5400FF3E031DA52FFF307D05031DB22FB32FB8
:101F6400922FBF2F0130F9020130F4000310FA0D53
:101F7400FB0DFC0DFD0DF40BB82FFC1BC22FC32F62
:101F8400C92F023079020318C82FC92FB42F79182A
:101F9400CC2FCD2FD52FFF30FA05FF30FB057F3036
:101FA400FC05FF30FD050310F90C7908F400F50178
:101FB400F601F70118300310F40DF50DF60DF70DC9
:101FC400FF3E031DDD2F7408FA047508FB04760830
:101FD400FC047708FD0478080319F12FF22FF72F7A
:101FE400F31FF52FF62FF72FFD177D08F3007C085C
:0C1FF400F2007B08F1007A08F000080001
:08400000FF3FFF3FFF3FFF3FC0
:04400E00E42CFF3F60
:00000001FF
