:100000000A128A11E62F00308A000408840A820747
:10001000003420342034573441344C344B34493488
:100020004E34473400345334593453345434453403
:0A0030004D3420344F344E340034B8
:1009A400FF30F0070318F10AFF30F107700A031D46
:1009B400DF2C710A031DDF2CE02CD22C08007E08EA
:1009C4008A007F0882000A128A11E1240A128A111D
:1009D4008000840A04087D0603190034FF0A031901
:1009E400FE0AE52C3F340034063400345B34003412
:1009F4004F340034663400346D3400347D340034B4
:100A040007340034FF340034673400348312031392
:100A1400BF003F180E2D122D831203130914152D38
:100A24008312031309103E0887000A128A111D2538
:100A34000A128A1108008312031389140A30F00081
:100A44000030F1000A128A11D2240A128A11831288
:100A5400031389100A30F0000030F1000A128A11E1
:100A6400D2240A128A11080083120313C100502DE4
:100A7400410884000A128A1103200A128A11C00054
:100A84004008BE0001300A128A1108250A128A1190
:100A9400013083120313C0004008C10741088400D9
:100AA4000A128A1103200A128A11003A031D5B2DCF
:100AB4005C2D3A2D080083120313BA01BB01732D78
:100AC400831203130C1C672D682D732D0130BA0794
:100AD4000318BB0A0030BB070B308F00DC308E00DC
:100AE4000C107108F3007008F2000310F20DF30DFE
:100AF4003B08803AF4007308803A7402031D842D85
:100B040072083A02031C872D882D622D0800831277
:100B14000313BD01FC1F8F2D902D972DFB09FC099C
:100B2400FB0A0319FC0ABD01BD0AFA1F9A2D9B2D6D
:100B3400A02DF909FA09F90A0319FA0A79087A04BD
:100B44000319A52DA62DD52DBC01BC0AB42D013049
:100B54000310F90DFA0DFF3E031DAA2D0130FD000F
:100B64007D08BC07FA1FB72DB82DA92D7A087C0281
:100B7400031DBE2D79087B02031CC12DC22DC82D77
:100B84007908FB027A08031CFC03FC020130031001
:100B9400FA0CF90CFF3E031DC92D0130BC02031DE4
:100BA400D42DD52DB82D3D080319D92DDA2DDF2DDF
:100BB400FB09FC09FB0A0319FC0A7C08FA007B0800
:100BC400F9000800F601F11FE82DE92DF02DF009D8
:100BD400F109F00A0319F10AF601F60AF31FF32DDD
:100BE400F42DFD2DF209F309F20A0319F30A013079
:100BF400F4007408F606F701F8017008710403198B
:100C0400042E052E3C2EF501F50A132E0130031097
:100C1400F00DF10DFF3E031D092E0130F4007408A0
:100C2400F507F11F162E172E082E01300310F70DAD
:100C3400F80DFF3E031D182E71087302031D242EA8
:100C440070087202031C272E282E2F2E7008F20221
:100C54007108031CF303F302771401300310F10C41
:100C6400F00CFF3E031D302E0130F502031D3B2E18
:100C74003C2E172E76080319402E412E462EF709D6
:100C8400F809F70A0319F80A7808F1007708F00060
:100C940008008312031389018801870186018501F5
:100CA40007308316031385008901880187018601B3
:100CB40083160317890188013530831203139000CA
:100CC4000B308F00DC308E003830C2004208BE008A
:100CD40000300A128A1108250A128A110E30831272
:100CE4000313C2004208BE0000300A128A1108250C
:100CF4000A128A11803083120313C2004208BE0014
:100D040000300A128A1108250A128A118312031369
:100D1400051C8D2E8E2EAF2E8030C2004208BE00E0
:100D240000300A128A1108250A128A110B300A129D
:100D34008A1136250A128A1183120313861586191D
:100D4400A42EA82E831203130614AB2E83120313AE
:100D540006100130B8000030B900851CB22EB32E45
:100D64002A2F38033904031DB82EB92E2A2FBE01A9
:100D7400BE0A00300A128A1108250A128A1180302C
:100D840083120313C2004208BE0000300A128A1103
:100D940008250A128A1102300A128A1136250A120B
:100DA4008A1183120313861106108616861ADB2E07
:100DB400DF2E831203130614E22E8312031306108C
:100DC4000530F0000030F1000A128A115D250A1284
:100DD4008A1183120313861206100616061AF32EBE
:100DE400F72E831203138614FA2E8312031386102C
:100DF4000330F0000030F1000A128A115D250A1256
:100E04008A118312031306128610861586190B2F76
:100E14000F2F831203130615122F831203130611C7
:100E24000230F0000030F1000A128A115D250A1226
:100E34008A118312031386158619212F252F8312F5
:100E440003130615282F83120313061186110611A6
:100E5400051D2D2F2E2F382F0130B4070318B50A86
:100E64000030B5070519372F382F342FC030C20092
:100E74004208BE0000300A128A1108250A128A119B
:100E84000A30F9000030FA000A30F0000030F100B6
:100E9400831203133508F3003408F2000A128A118E
:100EA400E4250A128A117108FC007008FB000A127A
:100EB4008A1189250A128A117908303E8312031394
:100EC400C2004208BE0001300A128A1108250A1223
:100ED4008A110A30F9000030FA008312031335082E
:100EE400FC003408FB000A128A1189250A128A11AF
:100EF4007908303E83120313C2004208BE00013059
:100F04000A128A1108250A128A110A30831203135D
:100F140034063504031D8F2F902F882E0611861555
:100F24008619952F992F8312031306149C2F83126D
:100F340003130610BE01BE0A00300A128A110825E6
:100F44000A128A11803083120313C2004208BE00C1
:100F540000300A128A1108250A128A1101300A1275
:100F64008A1136250A128A1183120313B601B701B6
:100F7400831203133608C2004207203E8400831301
:100F8400000888000130F0000030F1000A128A11D4
:100F94005D250A128A11013083120313B607031860
:100FA400B70A0030B7073708803AFF0080307F0265
:100FB400031DDE2F0A303602031CE12FE22FBA2F65
:100FC400882E0A128A11002883133430FD0004305D
:100FD400FE00F430FF00203084000A128A11E52458
:100FE4000A128A11B401B501B601B701B801B901F9
:0C0FF400BA01BB0183010A128A114B2EC6
:08400000FF3FFF3FFF3FFF3FC0
:04400E00E42CFF3F60
:00000001FF
